:020000040000fa
:080000000002040000000000f2
:020000040000fa
:040008007003000081
:020000040000fa
:04000c00700300007d
:020000040000fa
:040010007003000079
:020000040000fa
:040014007003000075
:020000040000fa
:040018007003000071
:020000040000fa
:04001c00700300006d
:020000040000fa
:040020007003000069
:020000040000fa
:040024007003000065
:020000040000fa
:040028007003000061
:020000040000fa
:04002c00700300005d
:020000040000fa
:040030007003000059
:020000040000fa
:0400340002030000c3
:020000040000fa
:040038007003000051
:020000040000fa
:04003c00700300004d
:020000040000fa
:040040007003000049
:020000040000fa
:040044007003000045
:020000040000fa
:04004800fa020000b8
:020000040000fa
:04004c00700300003d
:020000040000fa
:040050007003000039
:020000040000fa
:040054007003000035
:020000040000fa
:040058007003000031
:020000040000fa
:04005c004c03000051
:020000040000fa
:040060007003000029
:020000040000fa
:040064007003000025
:020000040000fa
:040068007003000021
:020000040000fa
:04006c00700300001d
:020000040000fa
:040070007003000019
:020000040000fa
:040074007003000015
:020000040000fa
:040078007003000011
:020000040000fa
:04007c00700300000d
:020000040000fa
:040080007003000009
:020000040000fa
:040084007003000005
:020000040000fa
:040088007003000001
:020000040000fa
:04008c0070030000fd
:020000040000fa
:0400900070030000f9
:020000040000fa
:040094002203000043
:020000040000fa
:0400980070030000f1
:020000040000fa
:04009c0070030000ed
:020000040000fa
:0400a00070030000e9
:020000040000fa
:0400a40070030000e5
:020000040000fa
:0400a80070030000e1
:020000040000fa
:0400ac0070030000dd
:020000040000fa
:0400b00070030000d9
:020000040000fa
:0400b40070030000d5
:020000040000fa
:0400b80070030000d1
:020000040000fa
:0400bc0070030000cd
:020000040000fa
:0400c00070030000c9
:020000040000fa
:0400c40070030000c5
:020000040000fa
:0400c80070030000c1
:020000040000fa
:0400cc0070030000bd
:020000040000fa
:0400d00070030000b9
:020000040000fa
:0400d40070030000b5
:020000040000fa
:0400d80070030000b1
:020000040000fa
:0400dc0070030000ad
:020000040000fa
:0400e00070030000a9
:020000040000fa
:0400e40070030000a5
:020000040000fa
:0400e80070030000a1
:020000040000fa
:0400ec00700300009d
:020000040000fa
:0400f0007003000099
:020000040000fa
:0400f4007003000095
:020000040000fa
:0400f8007003000091
:020000040000fa
:0400fc00700300008d
:020000040000fa
:040100007003000088
:020000040000fa
:040104007003000084
:020000040000fa
:040108007003000080
:020000040000fa
:04010c00700300007c
:020000040000fa
:040110007003000078
:020000040000fa
:040114007003000074
:020000040000fa
:040118007003000070
:020000040000fa
:04011c00700300006c
:020000040000fa
:040120007003000068
:020000040000fa
:040124007003000064
:020000040000fa
:040128007003000060
:020000040000fa
:04012c00700300005c
:020000040000fa
:040130007003000058
:020000040000fa
:040134007003000054
:020000040000fa
:040138007003000050
:020000040000fa
:04013c00700300004c
:020000040000fa
:040140007003000048
:020000040000fa
:040144007003000044
:020000040000fa
:040148007003000040
:020000040000fa
:04014c00700300003c
:020000040000fa
:040150007003000038
:020000040000fa
:040154007003000034
:020000040000fa
:040158007003000030
:020000040000fa
:04015c00700300002c
:020000040000fa
:040160007003000028
:020000040000fa
:040164007003000024
:020000040000fa
:040168007003000020
:020000040000fa
:04016c00700300001c
:020000040000fa
:040170007003000018
:020000040000fa
:040174007003000014
:020000040000fa
:040178007003000010
:020000040000fa
:04017c00700300000c
:020000040000fa
:040180007003000008
:020000040000fa
:040184007003000004
:020000040000fa
:040188007003000000
:020000040000fa
:04018c0070030000fc
:020000040000fa
:0401900070030000f8
:020000040000fa
:0401940070030000f4
:020000040000fa
:0401980070030000f0
:020000040000fa
:04019c0070030000ec
:020000040000fa
:0401a00070030000e8
:020000040000fa
:0401a40070030000e4
:020000040000fa
:0401a80070030000e0
:020000040000fa
:0401ac0070030000dc
:020000040000fa
:0401b00070030000d8
:020000040000fa
:0401b40070030000d4
:020000040000fa
:0401b80070030000d0
:020000040000fa
:0401bc0070030000cc
:020000040000fa
:0401c00070030000c8
:020000040000fa
:0401c40070030000c4
:020000040000fa
:0401c80070030000c0
:020000040000fa
:0401cc0070030000bc
:020000040000fa
:0401d00070030000b8
:020000040000fa
:0401d40070030000b4
:020000040000fa
:0401d80070030000b0
:020000040000fa
:0401dc0070030000ac
:020000040000fa
:0401e00070030000a8
:020000040000fa
:0401e40070030000a4
:020000040000fa
:0401e80070030000a0
:020000040000fa
:0401ec00700300009c
:020000040000fa
:0401f0007003000098
:020000040000fa
:0401f4007003000094
:020000040000fa
:0401f8007003000090
:020000040000fa
:0401fc00700300008c
:020000040000fa
:040200007003000087
:020000040000fa
:040204007003000083
:020000040000fa
:04020800700300007f
:020000040000fa
:04020c00700300007b
:020000040000fa
:040210007003000077
:020000040000fa
:040214007003000073
:020000040000fa
:04021800700300006f
:020000040000fa
:04021c00700300006b
:020000040000fa
:040220007003000067
:020000040000fa
:040224007003000063
:020000040000fa
:04022800700300005f
:020000040000fa
:04022c00700300005b
:020000040000fa
:040230007003000057
:020000040000fa
:040234007003000053
:020000040000fa
:04023800700300004f
:020000040000fa
:04023c00700300004b
:020000040000fa
:040240007003000047
:020000040000fa
:040244007003000043
:020000040000fa
:04024800700300003f
:020000040000fa
:04024c00700300003b
:020000040000fa
:040250007003000037
:020000040000fa
:040254007003000033
:020000040000fa
:04025800700300002f
:020000040000fa
:04025c00700300002b
:020000040000fa
:040260007003000027
:020000040000fa
:040264007003000023
:020000040000fa
:04026800700300001f
:020000040000fa
:04026c00700300001b
:020000040000fa
:040270007003000017
:020000040000fa
:040274007003000013
:020000040000fa
:04027800700300000f
:020000040000fa
:04027c00700300000b
:020000040000fa
:040280007003000007
:020000040000fa
:100400008f0421000eff2c000e0188000000000068
:10041000000020000000e000020032000001200087
:100420002002880014000700af0007000000e00071
:1004300003003a006017210001002000020037008d
:100440000000200001002000810f70000100320038
:100450000f000700000020000000e0000200320052
:100460000000020000000000cc09020000000000b3
:100470000040da000000fe00200020000000e00044
:1004800002003200100020009001880000000600e9
:10049000a1028800800478000000eb001f003700f4
:1004a000e284440054a0b4009905ba00e2844400f8
:1004b00054a0b4009906ba00e284440054a0b400e9
:1004c0000006eb00476fde00fd07b200ae018800ba
:1004d000636ce10003003a000ad801000000eb0061
:1004e0000e003700606ce10008003a00004deb00a0
:1004f0000a05e800020039003420ec000af0a000f0
:100500008b05e900f9ff3e00040037006168e10057
:10051000010032000086eb000b00070019c7ba008b
:100520000e04e0001905ba0003003a000a00e000da
:10053000dbff3a0000000600fe07b200ae028800b2
:100540008a047800f5ff37000cd0a300e20f4d00bd
:100550001c00390089027800354dba000a05e80010
:10056000020039003420ec000af0a0008b05e900fd
:100570000f003200254dba000a05e80002003900dc
:100580003420ec000af0a0008b05e90008003200de
:100590000c00e0000600320015cdba000a05e800a4
:1005a000020039003420ec000af0a0008b05e900bd
:1005b0008984e80054a0b4000b00e000e2ff3a0098
:1005c000000006009902ba00055d78008b05e9007d
:1005d000f7ff3200c82ade00055d78008b05e900d0
:1005e000f3ff32000c00e000f1ff320019ddba0029
:1005f000eeff37000000fa000108a9000080fa00b1
:10060000004006003600f800809fbe00829fbe00ba
:10061000849fbe00869fbe000000fa000068a9000b
:10062000e1060700750507000080fa004f03be00d1
:100630004f02be004f01be004f00be003600f90061
:10064000004006003600f800809fbe00829fbe007a
:10065000849fbe00869fbe000000fa000368a900c8
:10066000608080007180800061004000e080480070
:100670006080880071808800e00107000080fa0037
:100680004f03be004f02be004f01be004f00be0030
:100690003600f90000400600801f78000000fa00d4
:1006a00001a8a90000188000f081880010188000bf
:1006b0000082880020188000108288003018800096
:1006c00020828800401880003082880010c0b3006b
:1006d00017f0b7000080fa004f00780000400600d5
:1006e0000040da000000fe000000050003f0a20058
:1006f000889fbe008a9fbe008c1f780019010700ea
:10070000200133006450e1004f0032006420e1001a
:100710005200320003826c0007003b000905d00044
:100720000306d000820f54000c065d000200390061
:1007300002003200890178000306780085825500a6
:1007400004003d000003fd008103fd008502ea0076
:100750008b854200840f720002003b006000100095
:10076000e08018006011b8000005eb007a28e10075
:100770000a00390006007800c75ddd00f707b20007
:10078000878075002d003700828171000a01780092
:10079000610560008180d1000080d3008502e900fe
:1007a000f9ff3b00060440008784480002003b003c
:1007b00060041400e0841c000988a30007003200d4
:1007c0008a81710082817100610164008904d10015
:1007d0000884d3008b05e800170037000978a300d0
:1007e00013003a000b00e000130034008b05e90011
:1007f0000804440089844c000a4474000978a3006a
:100800000d003a000b00e000070034008b05e90002
:100810000804440089844c0001003a000b002000c9
:100820000978a300f7ff32000001eb000200370057
:10083000828171000a0178008f0007000cf0a70088
:1008400001f0a000d80037006420e10002003a0067
:10085000838f6c00d80033000801be000200be0088
:10086000d1003700889fbe008a9fbe008c1f780091
:10087000bc000700c300330003866c006450e10035
:100880002e0032006420e100330032006150e100ac
:100890002f0032006120e1003100320085855500d3
:1008a000eb07b00009002000080420000500370015
:1008b0000804440089844c000a0031000603430008
:1008c00087834b000001530081815b00f8ff3300f8
:1008d0000203be000800a0000804440089844c0004
:1008e000f6ff3900c639dd008301730001003200d4
:1008f000130020008904d1000884d3000998a300c4
:10090000050032000800a7000300a0008904d10000
:100910000884d3008b05e8008904d1000884d30043
:100920000001eb000281d2005300070001f0a1009a
:100930000cf0a70001f0a0009b0037006420e1004c
:100940009d0032000801be000200be00f7ff370024
:100950006120e100980032006000b800f3ff37002a
:100960000000200001f82700f0ff370014002000ed
:10097000c8003700f4ff2f00c60037000001be009a
:10098000630007000470a70003f0a1006509b1002f
:10099000160032000d0035006828e1000600350021
:1009a000f0ff2f00f1ff27000300e00013003b00e1
:1009b0000100280000000500000040008180480080
:1009c0008502e900fcff3a0008003700f88f42007a
:1009d00002003c008000eb00000005008100d10017
:1009e0000080d3008502e800fcff3a000300e0002d
:1009f00002003b0060001000e080180000000600cc
:100a00000001be00420007000470a70003f0a1002f
:100a100003f8a30013003a006509b100100032008a
:100a2000090035006928e1000200350001002800b6
:100a30000000050000004000818048008502e900b8
:100a4000fcff3a0000000600f88f42000500350068
:100a50008100d1000080d3008502e800fcff3a004d
:100a6000000006008000eb00000005004f89de005a
:100a700082017800a20037008100200061805500cb
:100a80000b003d000b00200061fe2f000100e10083
:100a90001d00340082817100610164008904d1006d
:100aa0000884d3000000e800faff3a00710020003b
:100ab0006100640003007000020060000900320061
:100ac00061044400e0844c000988a5000500320060
:100ad0008b05e8006808e10002003a008904d100b3
:100ae0000884d300f20f20000258e10005003d0009
:100af000c75ddd00f907b200898075000800780045
:100b0000000006000bf827008b00780000000500ad
:100b1000c70ade00f107b200f50fb200080032008c
:100b2000e1cf4200020032000170a0002400050065
:100b3000810f700001003200040805004400050028
:100b4000810f700002003a00140005008502e900e0
:100b50000000400081c04800fcff3b000170a00085
:100b6000240005000004be00e9ff07000003be00ea
:100b70000405be000200be00e5ff0700844f7500bb
:100b8000000006000200be006450e10005003600cf
:100b90006420e100020036000968a30001003a0069
:100ba0000800be000160a0004f0678004f05be009f
:100bb0004f04be0000000600f0ff2f00f1ff2700e9
:100bc000f9ff3700889fbe008a9fbe008c1f780007
:100bd000e4ff0700ebff330003866c006450e10084
:100be000240032006420e100270032006150e1005f
:100bf000220032006120e100210032008b8542009a
:100c0000eb07b1000134b800003ab8000804420014
:100c100089844a00013ab8000030b800888040005a
:100c200009014a00040033000000400081804800b0
:100c3000020149008b05e900c909dd00830170004c
:100c40000100320013002000c814de004814dd004b
:100c50004709de001200b200c808de0008847000f8
:100c600085ff070001f0a1000cf0a70001f0a00033
:100c7000cdff37006120e100cfff32000801be0048
:100c80000200be00f7ff37006150e100fcff3a00b0
:100c9000c9ff3700889fbe008a9fbe00841f78006e
:100ca000b0ff07004f00780011003300f0ff2f0065
:100cb000838f6c0006003b00040565000a00a70056
:100cc0000800370009f0a6001000200008003700d7
:100cd000820f5400838f5c00030039001000200055
:100ce00001003e000000200009f0a7000000ea001b
:100cf0004f05be004f04be000000e00000000600eb
:100d0000881f7800030478000300e00007003d001e
:100d100060001000e080180060011900e0811900f7
:100d200002003b0001f02d00030037000400070023
:100d300008f0a70001f0a0004f04780000000600b2
:100d4000889fbe008a9fbe0000827000040271006e
:100d500004827100260032000004be000200be00c2
:100d60006011b8006b092000950220000182cf00bd
:100d70000a0039000541b1000082cf0007003900a8
:100d80000541b1000982cf00040039000541b100de
:100d90000882cf00010039000541b1000542520030
:100da000120032000a003b00828171006101640080
:100db0008100d1000080d3008984d3000884d3004f
:100dc0008b05e8000442e800f7ff3a00070037000f
:100dd0000804440089844c000000480081804800d9
:100de0008b05e9000442e900f9ff3a0022ff070001
:0c0df0004f05be004f04be0000000600ce
:020000040000fa
:100dfc000000fa000ad0bf000080fb00cf80de00ac
:100e0c003201200003002000820f5000838f580015
:100e1c00a2003e0000060100130037001c00370042
:100e2c00250037002f0037003c0037004f003700fb
:100e3c005c0037006f00370070003700810037000e
:100e4c00820037009300370094003700930037007e
:100e5c009200370091003700240037002d00370036
:100e6c00440037004d0037000c30ef000e30ef001f
:100e7c000001eb006000b800f60307001200200030
:100e8c006000b800f303070010c0b3000af0b7000d
:100e9c006280800073808000803e20000100200072
:100eac00800f5100818f59007f00340020c0b300a7
:100ebc000af0b7007d00370090808000a180800090
:100ecc000001eb00e303070090808000a18080000c
:100edc0012002000df03070030c0b3000af0b70097
:100eec00720037007300070070003700908080009c
:100efc00a18080000001eb00d60307001200200047
:100f0c006000b800d303070050c0b3000af0b7006c
:100f1c00660037006700070064003700908080008f
:100f2c00a18080000001be00eefd07000200200041
:100f3c000304240048fe07000001eb00c503070072
:100f4c0090808000a180800001f0a20002002000af
:100f5c000304240040fe070012002000bd0307001c
:100f6c0050c0b3000af0b700500037005100070022
:100f7c004e0037000001eb006000b800b50307001d
:100f8c0090808000a180800012002000b103070037
:100f9c0070c0b3000af0b7004400370045000700ea
:100fac004200370090808000a180800001f0a200f8
:100fbc00020020000304240027fe07000001eb00c0
:100fcc00a403070090808000a18080000001be0077
:100fdc00c4fd070002002000030424001efe0700cd
:100fec00120020009b03070070c0b3000af0b7008a
:100ffc002e0037002f0007002c0037009080800057
:10100c00a1808000020020000300240012fe0700d3
:10101c000001eb008f03070090808000a18080000e
:10102c0001f0a20002002000030024000afe0700c9
:10103c00120020008703070090c0b3000af0b7002d
:10104c001a0037001b000700180037009080800042
:10105c00a180800001f0a200020020000300240007
:10106c00fdfd07000001eb007a0307009080800073
:10107c00a18080000200200003002400f6fd070080
:10108c001200200073030700b0c0b3000af0b700d1
:10109c000600370007000700040037000a70ef0055
:1010ac000000000001003700000000000080fa0082
:1010bc00000006000e00fa00889fbe008a1f780010
:1010cc000040eb00004f78008002200010079800d1
:1010dc0078818000898180001e009000cf80de0026
:1010ec005ffe07001a0020000001be000800be00d1
:1010fc001bfe07000000e000010035000005eb00be
:10110c002a07980098818000a98180001e00900019
:10111c00cf80de0052fe07001a0020000001be0046
:10112c000800be000efe07000000e00001003500c4
:10113c000005eb003a079800b8818000c981800057
:10114c001e009000cf80de0045fe07001a00200034
:10115c000001be000800be0001fe07000000e00018
:10116c00010035000005eb004a079800d88180008b
:10117c00e98180001e009000cf80de0038fe070061
:10118c001a0020000001be000800be00f4fd07009c
:10119c000000e000010035000005eb005a07980044
:1011ac0058818000698180001e009000cf80de0095
:1011bc002bfe07001a0020000001be000800be0034
:1011cc00e7fd07000000e000010035000005eb0022
:1011dc006a0798003e0090000000e0000c003a0006
:1011ec002e0090000000e000030032004e00900042
:1011fc000000e00006003a006e0090000000e000e5
:10120c00060032005e0090000000e0000300320097
:10121c0030c0b300004f78001a0037002e00900049
:10122c000000e0000300320020c0b300004f780043
:10123c00140037004e0090000000e0000300320064
:10124c0010c0b300004f78000e0037006e00900005
:10125c000000e0000300320040c0b300004f7800f3
:10126c00080037005e0090000000e0000300320030
:10127c0050c0b300004f7800020037000040eb0074
:10128c00004f78001e4078000004e00003003a0094
:10129c0020c0b3000bf0b7002f0037001e407800c1
:1012ac00e44f500003003a0000c1b3000bf0b7004c
:1012bc00290037001e407800e24f500003003a002e
:1012cc0040c0b3000bf0b700230037001e4078007d
:1012dc00e14f500003003a0060c0b3000bf0b700c0
:1012ec001d0037001e407800e54f500003003a0007
:1012fc0020c1b3000bf0b700170037001e40780078
:10130c00e34f500006003a000ad0bf00e64f5000f1
:10131c0003003a00a0c0b3000bf0b7000e0037007a
:10132c001e407800e34f500006003a000ad0bf0080
:10133c00e44f500003003a0080c0b3000bf0b7003c
:10134c00050037001e407800e34f500002003a00c1
:10135c0080c0b3000bf0b7000bd0bf008080fb0047
:10136c000ad0bf000080fb000000e900808f500015
:10137c00020032000bd0bf000af0b7004f05780016
:10138c004f04be000080fa00000006000600fa00c0
:10139c00881f780091030700bb03070064cea900e7
:1013ac0064eea900254ea900df000700f600070037
:1013bc0074010700f20107003e030700010037002b
:1013cc00000000007d030700e14f5000fcff3a00d5
:1013dc007e03070075030700000f78001e007800dd
:1013ec0010007800008088001e80e8001000780053
:1013fc00108088009e007800648040001000780007
:10140c00208088009e0078006680400010007800e4
:10141c00308088009e0078006880400010007800c2
:10142c00408088009e0078006480400010007800a6
:10143c00cf80de008afd0700323323003305240001
:10144c00ddfd0700020020000358240002fd070008
:10145c00d2cc2c00c3042400d7fd07001007980041
:10146c00210798001e019000ae01900000002000a2
:10147c0081202400f8fc070002002000030a24004d
:10148c0097fc070090818800a181880090818000e2
:10149c00a181800018c0b30002002000031f2400ab
:1014ac002ffd07000000e000010035000044eb00b8
:1014bc000804e0000200320064eea80001003700ce
:1014cc0064eea9009e00780068804000100078004f
:1014dc00cf80de0062fd0700323323003305240089
:1014ec00b5fd07000200200003582400dafc0700b9
:1014fc00d2cc2c00c3042400affd070010079800c9
:10150c00210798001e019000ae0190000000200001
:10151c0081202400d0fc070002002000030a2400d4
:10152c006ffc0700b0818800c18188001e80e80034
:10153c0010007800cf80de0049fd07003233230015
:10154c00330524009cfd07000200200003582400f2
:10155c00c1fc0700d2cc2c00c304240096fd07006c
:10156c0010079800210798001e019000ae01900012
:10157c000000200081202400b7fc0700020020009e
:10158c00030a240056fc07007081880081818800c2
:10159c001e00780010007800cf80de0030fd0700c0
:1015ac00323323003305240083fd070002002000a2
:1015bc0003582400a8fc0700d2cc2c00c304240040
:1015cc007dfd070010079800210798001e01900070
:1015dc00ae01900000002000812024009efc07003a
:1015ec0002002000030a24003dfc07005081880003
:1015fc0061818800508180006181800018c0b30037
:10160c0002002000031f2400d5fc07000000e000ae
:10161c00010035000044eb000804e0000b003a0028
:10162c00708180008181800018c0b300020020000e
:10163c00031f2400cafc07000000e0000100350075
:10164c000044eb000804e00002003200254ea80024
:10165c0001003700254ea9009e00780066804000ee
:10166c0010007800cf80de00fdfc07003233230031
:10167c003305240050fd070002002000035824000d
:10168c0075fc0700d2cc2c00c30424004afd0700d3
:10169c0010079800210798001e019000ae019000e1
:1016ac0000002000812024006bfc070002002000b9
:1016bc00030a24000afc0700d0818800e18188001d
:1016cc00d0818000e181800018c0b30002002000ae
:1016dc00031f2400a2fc07000000e00001003500fd
:1016ec000044eb000804e0000b003a00b0818000dd
:1016fc00c181800018c0b30002002000031f240029
:10170c0097fc07000000e000010035000044eb00ee
:10171c000804e0000200320064cea80029ff370064
:10172c0064cea90027ff37000000fa0013e1a900de
:10173c0011e1a9001061a8001021a9008108800006
:10174c00f0fc2f00008060000040a00080088800a2
:10175c00c00420007008880000b4240060088800d1
:10176c002142800080ff2f00008060000000a0005c
:10177c00204288000108a9002108a80011e1a80056
:10178c000080fa00000006000000fa0005e1a90044
:10179c0000002000a1372400060007000421a90046
:1017ac000068a9002068a80005e1a8000080fa00e4
:1017bc00000006000400fa00881f7800008fbe00ad
:1017cc0021088000f0fc2f000080600020088800b9
:1017dc001e0178009e0190000068290081c1240040
:1017ec001dfc070018c0b30002f02f00f377240093
:1017fc005dfc07000000e00001003c000044eb0031
:10180c000804e0005400320021088000f0fc2f0096
:10181c00008060000040a000200888001e017800b5
:10182c009e0190000068290081c124000afc070079
:10183c00020020000310240007fc070018c0b300ae
:10184c0002f02f00f377240047fc07000000e000b3
:10185c0001003c000044eb000804e00032003200c0
:10186c0021088000f0fc2f00008060000050a000d8
:10187c00200888001e0178009e0190000068290055
:10188c0081c12400f4fb070002002000032824007f
:10189c00f1fb070018c0b30002f02f00f37724000f
:1018ac0031fc07000000e00001003c000044eb00ac
:1018bc000804e00010003200210880000003200022
:1018cc0001007000200888001e0178009e01900025
:1018dc000068290081c12400dffb07000200200002
:1018ec0003382400dcfb070021fc07000000780013
:1018fc0010088800200037001e0178009e0190001f
:10190c000068290081c12400d3fb070002002000dd
:10191c0003282400d0fb070015fc0700000078000a
:10192c0010088800140037001e0178009e019000fa
:10193c000068290081c12400c7fb070002002000b9
:10194c0003102400c4fb070009fc0700000078000a
:10195c0010088800080037001e0178009e019000d6
:10196c000068290081c12400bbfb070000fc0700b4
:10197c0000007800100888004f0478000080fa00fe
:10198c00000006000000fa001fe1a9000000200082
:10199c00a1472400060007001e21a9000368a90026
:1019ac002368a8001fe1a8000080fa0000000600d0
:1019bc000400fa00881f7800008fbe00f108800038
:1019cc00f0fc2f0000806000f00888001e017800f9
:1019dc009e0190000068290081c124009efb070035
:1019ec0018c0b30002f02f00f3772400defb0700d1
:1019fc000000e00001003c000044eb000804e000a3
:101a0c0054003200f1088000f0fc2f0000806000d0
:101a1c000040a000f00888001e0178009e01900094
:101a2c000068290081c124008bfb07000200200004
:101a3c000310240088fb070018c0b30002f02f002d
:101a4c00f3772400c8fb07000000e00001003c0015
:101a5c000044eb000804e00032003200f108800082
:101a6c00f0fc2f00008060000050a000f0088800ff
:101a7c001e0178009e0190000068290081c124009d
:101a8c0075fb0700020020000328240072fb0700ee
:101a9c0018c0b30002f02f00f3772400b2fb07004c
:101aac000000e00001003c000044eb000804e000f2
:101abc0010003200f10880000003200001007000cb
:101acc00f00888001e0178009e0190000068290033
:101adc0081c1240060fb07000200200003382400b1
:101aec005dfb0700a2fb07000000780010088800cf
:101afc00200037001e0178009e019000006829002c
:101b0c0081c1240054fb070002002000032824009c
:101b1c0051fb070096fb07000000780010088800b6
:101b2c00140037001e0178009e0190000068290007
:101b3c0081c1240048fb0700020020000310240090
:101b4c0045fb07008afb070000007800100888009e
:101b5c00080037001e0178009e01900000682900e3
:101b6c0081c124003cfb070081fb070000007800ca
:101b7c00100888004f0478000080fa00000006006e
:101b8c000000fa001160800080ff2f0000806000d0
:101b9c001060880080bb20002060880023aca80067
:101bac00238ca80011618000f03f2f0000806000a2
:101bbc0000a0a00010618800300020002061880087
:101bcc00c3aca800c38ca80011668000f03f2f00a6
:101bdc000080600000a0a00010668800300020008b
:101bec002066880001eca8000080fa0000000600c6
:101bfc000000fa00889fbe0034818000458180007f
:101c0c00108180002181800018c0b3000001be004b
:101c1c000400be0052fb07000000e000010035008c
:101c2c000044eb000804e0000b0032001881800037
:101c3c0029818000308180004181800002002000d9
:101c4c00c3202400a7fa07000801be00c00007004b
:101c5c00308188004181880034818000458180007a
:101c6c00108180002181800018c0b3000001be00eb
:101c7c000400be003cfb07000000e00001003c003b
:101c8c000044eb000804e0000b00320018818000d7
:101c9c002981800030818000418180000200200079
:101cac00c32024008efa07000801be009000070034
:101cbc003081880041818800308180004181800022
:101ccc0018c0b3006011b80025fb07000000e0004d
:101cdc00010034000044eb000804e0000400320072
:101cec00c3cca90024eea800c3eca8000300370065
:101cfc00c3eca90024cea800c3cca800308180007e
:101d0c00418180006400070002002000031f2400b2
:101d1c00a9fb070037fb070000007800306688003d
:101d2c00f480800005818000d0808000e1808000fc
:101d3c0018c0b3000001be000400be0008fb070081
:101d4c000000e000010035000044eb000804e00056
:101d5c000b003200d8808000e9808000f080800089
:101d6c000181800002002000c32024005dfa0700de
:101d7c000801be0076000700f08088000181880011
:101d8c00f480800005818000d0808000e18080009c
:101d9c0018c0b3000001be000400be00f2fa070038
:101dac000000e00001003c000044eb000804e000ef
:101dbc000b003200d8808000e9808000f080800029
:101dcc000181800002002000c320240044fa070097
:101ddc000801be0046000700f080880001818800e1
:101dec00f08080000181800018c0b3006011b80041
:101dfc00ddfa07000000e00001003c000044eb00ad
:101e0c000804e0000400320023cca90015eea80061
:101e1c0023eca8000300370023eca90015cea80082
:101e2c0023cca800f0808000018180001a000700fc
:101e3c0002002000031f24005ffb0700edfa0700df
:101e4c0000007800306188004f04be000080fa006a
:101e5c00000006000600fa00008fbe002207980062
:101e6c002e009000e10f500005003a001e01780092
:101e7c009e019000d2808800e38088000400370027
:101e8c001e0178009e019000128188002381880039
:101e9c000080fa00000006000400fa00881f780099
:101eac00008fbe0018c0b3006011b8001e0078008f
:101ebc009e009000acfa07000000e00001003d001d
:101ecc000044eb000804e000030032001e00780020
:101edc009e009000030037001e0078009e009000ca
:101eec0001f0a2004f0478000080fa000000060008
:101efc000800fa00881f7800008fbe0022079800a7
:101f0c003307980018c0b3002e019000be0190005a
:101f1c001e0078009e00900093fa07000000e0007d
:101f2c0001003c000044eb000804e0000300320018
:101f3c001e0078009e009000020037002e009000da
:101f4c00be0090004f0478000080fa0000000600ec
:101f5c000800fa00881f7800008fbe002207980046
:101f6c003307980018c0b3002e019000be019000fa
:101f7c001e0078009e00900079fa07000000e00037
:101f8c00010035000044eb000804e00003003200bf
:101f9c001e0078009e009000020037002e0090007a
:101fac00be0090004f0478000080fa00000006008c
:101fbc000c00fa00881f7800008fbe0022079800e2
:101fcc0033079800440798005507980018c0b300d1
:101fdc004e019000de0190001e0078009e009000e3
:101fec0061fa07000000e00001003c000044eb0037
:101ffc000804e000040032004e019000de01900065
:10200c00028fbe000e00370018c0b3002e019000e6
:10201c00be0190001e0078009e00900050fa070050
:10202c000000e000010035000044eb000804e00073
:10203c00030032002e019000be019000028fbe0002
:10204c001e0078009e0090004f0478000080fa007b
:10205c00000006000400fa00008fbe00b2fd200054
:10206c00930424001e0078009e009000faf90700eb
:10207c000200200043332400cffa07000080fa004e
:10208c00000006000400fa00008fbe00b2fd200024
:10209c00930424001e0078009e009000c6fa0700ee
:1020ac000200200043332400ebf907000080fa0003
:1020bc00000006000000fa0021e3a9002143a8005b
:1020cc0001198000f0cf2f000080600000198800fb
:1020dc002043a90001198000000e200001007000af
:1020ec000019880011198000f0ff210000806000a9
:1020fc00101988002343a80011198000f0cf2f007d
:10210c0000806000101988001119800030f82f0031
:10211c00008060000040a000101988002203a90074
:10212c002223a90025e3a900f0c0b30024e3b700e3
:10213c0021198000f00f2e008080600000f020003c
:10214c0001007000201988003303a9002e0ea8008e
:10215c002f6ea8006f2ea8004feea8001e2ea80010
:10216c0030c3a8003163a8002e03a8003063a80078
:10217c0031e3a8004119800000fc2f0000806000b2
:10218c004019880028e3a90001a8a90021a8a800eb
:10219c0021e3a8000080fa00000006000000fa000d
:1021ac002023a8000080fa00000006000000fa00be
:1021bc00e00321000080fa00000006000000fa0095
:1021cc0017d0bf000080fa00000006000000fa00e3
:1021dc001770ef000080fa00000006000000fa0003
:1021ec00f0032000303a8800213a8000f0f32f00f1
:1021fc0000806000203a8800213a800000fe2f0009
:10220c00008060000000a000203a8800120020002e
:10221c0080072000a1092000337420008049780039
:10222c008149780082497800103a800000017800da
:10223c000200a0006004200071052000237420001f
:10224c0080497800814978008249780000000000bc
:10225c00113a8000000027008080600000002100ff
:10226c00808f5000faff3a0000000000113a800005
:10227c0000022000008060000000e000fbff320044
:10228c000080fa00000006000000fa000e2eef009d
:10229c001e2eef002e2eef003e2eef004e2eef00e6
:1022ac005e2eef006e2eef002e0ea8002f6ea800f3
:1022bc006f2ea8004feea8001e2ea800214ea900dc
:1022cc0060cea90060eea90011cea90011eea90004
:1022dc0020cea90020eea9000080fa000000060024
:020000040000fa
:1022ec00001000000c000000800000001210000024
:1022fc0004000000820000000000f000410000001b
:10230c000c100000060000008000000018100000f7
:10231c0026000000800000003e1000000a000000b3
:10232c008000000016100000020000008000000079
:04233c00000000009d
:020000040000fa
:02000004000af0
:04afe000cfff00009f
:020000040000fa
:02000004000af0
:04afe400ffff00006b
:020000040000fa
:02000004000af0
:04afe8007fff0000e7
:020000040000fa
:02000004000af0
:04afec005fff000003
:020000040000fa
:02000004000af0
:04aff00038ff000026
:020000040000fa
:02000004000af0
:04aff400ffff00005b
:00000001FF
